{
  "contractName": "DappToken",
  "abi": [
    {
      "inputs": [],
      "name": "totalSupply",
      "outputs": [
        {
          "internalType": "uint256",
          "name": "",
          "type": "uint256"
        }
      ],
      "stateMutability": "view",
      "type": "function"
    },
    {
      "inputs": [],
      "name": "dappToken",
      "outputs": [],
      "stateMutability": "nonpayable",
      "type": "function"
    }
  ],
  "bytecode": "0x608060405234801561000f575f80fd5b5060c98061001c5f395ff3fe6080604052348015600e575f80fd5b50600436106030575f3560e01c806318160ddd1460345780635eb186f814604e575b5f80fd5b603a6056565b60405160459190607c565b60405180910390f35b6054605b565b005b5f5481565b620f42405f81905550565b5f819050919050565b6076816066565b82525050565b5f602082019050608d5f830184606f565b9291505056fea26469706673582212205f9f122669cae5835be730139c6cc54500b33ef7689b165010b285d985ef639864736f6c63430008140033",
  "immutableReferences": {},
  "source": "// SPDX-License-Identifier: SEE LICENSE IN LICENSE\npragma solidity ^0.8.18;\n\ncontract DappToken{\n\n    uint256 public totalSupply;\n\n    function dappToken()  public {\n        totalSupply=1000000;\n    }    \n}",
  "sourcePath": "/home/user/Desktop/truffle/token_sale/contracts/DappToken.sol",
  "compiler": {
    "name": "solc",
    "version": "0.8.20+commit.a1b79de6.Emscripten.clang"
  },
  "schemaVersion": "3.4.14",
  "updatedAt": "2023-07-04T13:19:33.723Z",
  "devdoc": {
    "kind": "dev",
    "methods": {},
    "version": 1
  },
  "userdoc": {
    "kind": "user",
    "methods": {},
    "version": 1
  }
}