{
  "contractName": "VASTOKEN",
  "abi": [
    {
      "inputs": [],
      "name": "totalSupply",
      "outputs": [
        {
          "internalType": "uint256",
          "name": "",
          "type": "uint256"
        }
      ],
      "stateMutability": "view",
      "type": "function"
    },
    {
      "inputs": [],
      "name": "dappToken",
      "outputs": [],
      "stateMutability": "nonpayable",
      "type": "function"
    }
  ],
  "bytecode": "0x608060405234801561001057600080fd5b5060c78061001f6000396000f3fe6080604052348015600f57600080fd5b506004361060325760003560e01c806318160ddd1460375780635eb186f8146051575b600080fd5b603d6059565b60405160489190606e565b60405180910390f35b6057605f565b005b60005481565b565b6068816087565b82525050565b6000602082019050608160008301846061565b92915050565b600081905091905056fea2646970667358221220042383426409d84760e3bae7b736beadc99328a498a0279f2951ea6ddc4b130664736f6c63430008020033",
  "immutableReferences": {},
  "source": "// SPDX-License-Identifier: SEE LICENSE IN LICENSE\npragma solidity ^0.8.2;\n\n// import \"@openzeppelin/contracts/token/ERC20/ERC20.sol\";\ncontract VASTOKEN {\n    //Constructor\n    //Set the total number of tokens\n    //read the total number of tokens\n    uint256 public totalSupply;\n   function dappToken() public {\n        // totalSupply =0;\n        // balancesOf[msg.sender] += 1000000;\n    }\n}   \n    ",
  "sourcePath": "/home/user/Desktop/truffle/token_sale/contracts/DappToken.sol",
  "compiler": {
    "name": "solc",
    "version": "0.8.2+commit.661d1103.Emscripten.clang"
  },
  "schemaVersion": "3.4.14",
  "updatedAt": "2023-07-05T11:45:36.699Z",
  "devdoc": {
    "kind": "dev",
    "methods": {},
    "version": 1
  },
  "userdoc": {
    "kind": "user",
    "methods": {},
    "version": 1
  }
}